:020000020000FC
:100000001FC004C003C002C001C000C01895C29A3E
:10001000E3E0EA95F1F7C298E2E0EA95F1F7FA95A4
:10002000B1F708950895C298FA9531F0E6E0EA959F
:10003000F1F70000FA95D1F7E6E0EA95F1F70895B7
:10004000FBE6F1BFF4E2F7BBF1E0F8BB002742D0DA
:1000500041D0BD98B099FECF0027B09904C0039558
:10006000E1F700C0F7CF0B33E8F30E36D8F70027DF
:10007000B09B03C00395E1F7F5CF0A3298F30E3534
:1000800088F70027B09903C00395E1F7EBCF02345E
:1000900048F3023938F7BD9AF0E1C5DFF0E1B7DF88
:1000A000F0E1C1DFF0E1BFDFF0E1B1DFF0E1AFDFB0
:1000B000F0E1B9DFF0E1ABDFF0E1B5DFF0E1A7DFC0
:1000C000F0E1B1DFF0E1A3DFF0E1ADDF01E002D06C
:1000D000BD98C0CFF2E0E7ECEA95F1F7FA95D9F7D1
:0600E0000A95C1F7089526
:00000001FF
