:020000020000FC
:10000000CAC009C008C007C006C005C004C003C0FC
:1000100002C001C000C0189510E3042F069508F433
:1000200015E310937100AFE610E30A3018F00A50A0
:100030001395FBCF1D9310E3100F1D93089520E33C
:10004000082F192FA0E6173238F011F4003120F0F4
:10005000005117422395F7CF2D9320E3133038F04A
:1000600011F4083E20F0085E13402395F7CF2D933E
:1000700020E3103011F4043620F00456104023958C
:10008000F8CF2D93D1CF929A1AE01A95F1F700008C
:10009000929819E01A95F1F700000A95A1F70895D2
:1000A00092980A9531F015E11A95F1F700000A953A
:1000B000D1F71AE01A95F1F7000008951AE31093AA
:1000C00065001093680010936B001EE210936E00A1
:1000D000A3DFACE6052FA8DFA9E6062FA5DFA6E67D
:1000E000072FA2DFACDF08950D931A95E9F7089565
:1000F00008E10AB905E009B908955D9B08950091EA
:100100009300109194000117C9F3A3E7A00F1C916D
:100110001CB903950F7100939300EFCF10919300DA
:1001200020919400121B1A951F7139F0A3E7A20FBA
:100130000C9323952F71209394000895A0E60D91C0
:10014000AF93ECDFAF91A237D1F70DE0E7DF0AE024
:10015000E5DF08950091930010919400011B0A952A
:100160000F710895002021F0C0980A9409F4C09AF4
:10017000112021F0C1981A9409F4C19A222021F08B
:10018000C2982A9409F4C29A332021F0C3983A9471
:1001900009F4C39A08950FED0DBFBB27A0E6002711
:1001A0001CE7A2DFA5DF05E00EBD0FE007BB0FEFE8
:1001B00008BB002E102E202E302E04E001BB0BEFCA
:1001C00002BB992788277727662755274427992434
:1001D000AA244FBD4CBD4DBD71DF0CB50231B0F04E
:1001E00002510CBD4395BEDF483C70F0485C53950E
:1001F0005C3350F05C5363956C3330F06C53739503
:10020000783110F07851019659DFE7CFA8959A2CF4
:1002100004E139DF00E144DF00E135DF04E140DFE4
:1002200011C0EE0FF7FEE395C395C0FD0895E130D0
:1002300011F0E23029F4DD0FE0FFD395EE270895A9
:10024000FF9025C0DD27CC27EE2703E003BF002762
:1002500002BFB79B04C002B70032D8F338C0CC301D
:10026000E1F0002702BFF6B202B7093288F4CB30C2
:1002700011F4053168F406B30F250078A9F302B72D
:10028000093028F0CEDF093150F3CBDFE8CF1FC0B3
:10029000CB30E9F7F7FEFBCFC4DFDC71D695D695FE
:1002A000AD2EA3949A1471F0AA2DAA9508EC0C9384
:1002B00000E30A0F33DF00E231DF40DF1EDF4ADFF9
:1002C0000F31E1F704E008D000E10FD086CFAA2477
:1002D00001E002E001D081CF15E022272A95F1F755
:1002E0001A95D9F70A95C1F7089514E01A95F1F710
:0602F0000A95D9F70895FC
:00000001FF
